:020000040800F2
:100000000040022049460008854400088D4400084D
:1000100000000000000000000000000000000000E0
:1000200000000000000000000000000095440008EF
:1000300000000000000000009F440008A9440008E0
:100040009946000899460008994600089946000814
:100050009946000899460008994600089946000804
:1000600099460008994600089946000899460008F4
:1000700099460008994600089946000899460008E4
:1000800099460008994600089946000899460008D4
:1000900099460008994600089946000899460008C4
:1000A00099460008994600089946000899460008B4
:0C00B000B9440008994600089946000871
:1000BC0010B5064C2378002B07D1054B002B02D032
:1000CC00044800E000BF0123237010BD0C00002089
:1000DC0000000000F07B0008044B10B5002B03D08F
:1000EC000349044800E000BF10BDC04600000000FA
:1000FC0010000020F07B0008002243088B4274D3D0
:10010C0003098B425FD3030A8B4244D3030B8B420C
:10011C0028D3030C8B420DD3FF22090212BA030C15
:10012C008B4202D31212090265D0030B8B4219D3F6
:10013C0000E0090AC30B8B4201D3CB03C01A524116
:10014C00830B8B4201D38B03C01A5241430B8B425E
:10015C0001D34B03C01A5241030B8B4201D30B0347
:10016C00C01A5241C30A8B4201D3CB02C01A52416E
:10017C00830A8B4201D38B02C01A5241430A8B4231
:10018C0001D34B02C01A5241030A8B4201D30B021A
:10019C00C01A5241CDD2C3098B4201D3CB01C01A34
:1001AC00524183098B4201D38B01C01A524143093E
:1001BC008B4201D34B01C01A524103098B4201D32C
:1001CC000B01C01A5241C3088B4201D3CB00C01A99
:1001DC00524183088B4201D38B00C01A5241430811
:1001EC008B4201D34B00C01A5241411A00D2014636
:1001FC00524110467047FFE701B5002000F0F0F8BF
:10020C0002BDC0460029F7D076E7704703460B4382
:10021C007FD4002243088B4274D303098B425FD3F3
:10022C00030A8B4244D3030B8B4228D3030C8B421F
:10023C000DD3FF22090212BA030C8B4202D3121205
:10024C00090265D0030B8B4219D300E0090AC30BDA
:10025C008B4201D3CB03C01A5241830B8B4201D387
:10026C008B03C01A5241430B8B4201D34B03C01A70
:10027C005241030B8B4201D30B03C01A5241C30AE8
:10028C008B4201D3CB02C01A5241830A8B4201D359
:10029C008B02C01A5241430A8B4201D34B02C01A43
:1002AC005241030A8B4201D30B02C01A5241CDD2E8
:1002BC00C3098B4201D3CB01C01A524183098B4233
:1002CC0001D38B01C01A524143098B4201D34B011C
:1002DC00C01A524103098B4201D30B01C01A52417F
:1002EC00C3088B4201D3CB00C01A524183088B4206
:1002FC0001D38B00C01A524143088B4201D34B00EF
:10030C00C01A5241411A00D2014652411046704760
:10031C005DE0CA0F00D04942031000D34042534065
:10032C0000229C4603098B422DD3030A8B4212D325
:10033C00FC22890112BA030A8B420CD38901921157
:10034C008B4208D3890192118B4204D389013AD094
:10035C00921100E08909C3098B4201D3CB01C01A69
:10036C00524183098B4201D38B01C01A524143097C
:10037C008B4201D34B01C01A524103098B4201D36A
:10038C000B01C01A5241C3088B4201D3CB00C01AD7
:10039C00524183088B4201D38B00C01A5241D9D2EF
:1003AC0043088B4201D34B00C01A5241411A00D270
:1003BC000146634652415B10104601D34042002B6C
:1003CC0000D54942704763465B1000D3404201B5EB
:1003DC00002000F005F802BD0029F8D016E77047A0
:1003EC007047C0468446100062468C46190063462E
:1003FC0000E0C0461FB501F0CFF8002801D4002161
:10040C00C8421FBD10B501F013F84042013010BDB9
:10041C0010B501F0C1F8002801DB002010BD01204F
:10042C0010BDC04610B501F0B7F8002801DD002062
:10043C0010BD012010BDC04610B501F03DF80028DC
:10044C0001DC002010BD012010BDC04610B501F02C
:10045C0033F8002801DA002010BD012010BDC04681
:10046C00002B11D1002A0FD1002900D1002802D075
:10047C000021C943080007B4024802A140180290A9
:10048C0003BDC0465DFFFFFF03B4684601B502988B
:10049C0000F024F8019B9E4602B00CBC7047C0468D
:1004AC0070B500220C4B04000D00FFF7CFFF0028A5
:1004BC0004D12000290001F0CDFF70BD064B0022B5
:1004CC002000290001F0BCFB01F0C4FF80231B06B7
:1004DC009C466044F1E7C0460000E041F0B5574649
:1004EC004E464546DE46E0B504000D009246994660
:1004FC0083B08B4230D82DD04946504602F056F886
:10050C0029000600200002F051F8331A9846203BCF
:10051C0034D49B4653465A46934042461F0053469A
:10052C0093401E00AF423BD8AF4200D179E05B460E
:10053C00A41BBD41002B00DA76E0002200230092C0
:10054C00019301235A469340019301234246934061
:10055C00009329E08242CFD900220023009201931C
:10056C000C9B002B01D01C605D600098019903B0BE
:10057C00F0BCBB46B246A946A046F0BD42469B46DF
:10058C0020239B1A5246DA40414613004A468A40C1
:10059C00170042461F43534693401E00AF42C3D937
:1005AC0000220023009201934346002BD8D0FB0776
:1005BC0072081A4346467B080EE0AB4201D1A242B8
:1005CC000CD8A41A9D41012024196D410021013E33
:1005DC0024184D41002E06D0AB42EED9013E241911
:1005EC006D41002EF8D1009801995B4600196941C4
:1005FC00002B24DB2B005A464446D3402A00E24011
:10060C001C005B461500002B2ADB26009E403300A5
:10061C0026004746BE403200801A99410090019155
:10062C009EE7A342BCD882E74246202300219B1AB6
:10063C000022009101920122DA40019285E74246A4
:10064C0020239B1A2A0046469A402300F340444636
:10065C0013432A00E2401C005B461500002BD4DA41
:10066C0042462F002023260097409B1ADE403B0079
:10067C003343CDE7F0B54F464646D646C0B582B0BB
:10068C00009001910E034C00CD0F710A009E5F008B
:10069C00760F0E43009900920193C9008946190305
:1006AC007B0D9846019B490ADB0F9C46009B009AE8
:1006BC005B0F0B434146640DD200611A654500D1B6
:1006CC00A6E0002972DD4746002F00D1DDE0CC4FBB
:1006DC00BC4200D19AE10127382917DC80273F045E
:1006EC003B431F2900DDDDE12027781A1F008740DE
:1006FC00BA461700CF408446380057460743604639
:10070C008240CB40501E8241F61A17434B46DF1BEA
:10071C00B94580414042361A330200D4FFE07602DC
:10072C00760A002E00D13CE1300001F021FF0300DD
:10073C00083B20213800CA1AD0409E4002009F403E
:10074C0032439C4200DDA6E1181B0130091A3E0021
:10075C008F40C6407B1E9F4113008B4037431F4385
:10076C00C2403B0016000024134300D1DFE17B079D
:10077C0000D132E30F233A003B40042B04D03A1D46
:10078C00BA42BF417F42F619330200D423E39C4B9B
:10079C0001349C4200D1B4E09A4B64051E40640DB8
:1007AC007707D20876021743360BACE0002900D14C
:1007BC007EE04146091B002C00D060E13400484625
:1007CC00044300D1C9E14C1E012900D12EE28C4D0D
:1007DC00A94200D124E20127382C11DC21001F2969
:1007EC0000DD0BE2202437004846641AA740C840BD
:1007FC0007434846A040CE40441EA0419B1B0743E4
:10080C00D71BBA4292415242654644469E1A83E730
:10081C00002900DC9CE04746002F67D11F001743DE
:10082C0000D1E4E0481E012900D19BE1744FB9428C
:10083C0000D1EBE001270100382811DC1F2900DD75
:10084C00C7E12027781A1F00844687401000C84053
:10085C00074360468240CB40501E8241F618174336
:10086C004F444F45804140423618330257D5644BB4
:10087C0001349C4245D00121624B7A081E4039401C
:10088C000A43F7071743760871E71F00174300D197
:10089C00ADE04F1EBC46012900D182E1584FB94250
:1008AC0000D190E161460127382900DD2EE718E7D9
:1008BC00554F611C394200D0D0E0310048461F0032
:1008CC0001431743002C00D03DE1002900D1BCE1CD
:1008DC00002F00D0BFE14B460021D8087707074313
:1008EC00F00806034C05360B640D0CE0444FBC427B
:1008FC0000D18BE001273829B2DC80273F043B4331
:10090C009CE70026002724053443ED072C433800D0
:10091C00210002B0E0BCBA46B146A846F0BD7B0748
:10092C0004D00F233B40042B00D028E7F808344BAD
:10093C0077070743F0089C4200D04AE23B00034390
:10094C0059D080263603064336032D4C360BDAE796
:10095C00002961D04146091B002C00D1B9E0284C7C
:10096C00A04500D1A5E10127382913DC80242404FB
:10097C0026431F2900DDC8E1202437004846641AAD
:10098C00A740C84007434846A040CE40441EA04163
:10099C009B190743BF189742924152424446D618BE
:1009AC0063E7380001F0E4FD030018331F2B00DC73
:1009BC00BFE63A00083882409C4200DD83E01B1BF6
:1009CC00581C1F2800DCB4E117001F3BDF40202817
:1009DC0005D040231B1A9A40531E9A4117430024FA
:1009EC00002F0AD07B0700D0C4E626009EE74B46BA
:1009FC000C00D8089BE70027014C002683E7C04673
:100A0C00FF070000FFFF7FFFFE0700004B46770744
:100A1C00D8080743F00891E7CD4F611C39426BD1E0
:100A2C00310048460143002C00D04BE11F00174316
:100A3C00002900D181E1002F00D14CE74A444A45FE
:100A4C008041F61840423618330200D5B0E1170049
:100A5C009146374300D03EE7002654E74946891AB1
:100A6C008846C145BF41F11A7F42C91B0F0261D4B0
:100A7C0047460F4300D1BDE00E00474651E6B54C4A
:100A8C00A04500D100E10127382900DDB8E680241B
:100A9C0024042643A3E6B04EE41A16407B0700D08C
:100AAC003FE743E70F001800203FF8408446202919
:100ABC0003D04027791A8B401A43531E9A41634640
:100ACC0017001F4322E6A448E11A10404707C0084C
:100ADC0007E734004846044300D1FAE04C1E0129D4
:100AEC0000D1D7E09B4FB94200D1E2E00127382C6E
:100AFC0000DD4FE721003CE7964CA14200D1DDE040
:100B0C004A444A458041F31840421818C707520816
:100B1C0017434608520705D00F220C003A40042A0E
:100B2C0000D02CE67607FF0837430009D9E60027EA
:100B3C000026E8E64946571ABA4292419E1B524299
:100B4C006546B61AEDE5002900D0C6E0002F67D146
:100B5C00802600257F4C3603D5E665460C001E002A
:100B6C00D008E4E64A444A458041F318404218183C
:100B7C001100030200D496E0774B49081840C307D4
:100B8C000B434408490700D129E10F221A40042ADB
:100B9C0000D1EAE01F1D9F42B6417642361902246D
:100BAC00C4E649468F1AB9458041F61A4042361AB6
:100BBC00330206D47307FF0801211F43F00890E6A7
:100BCC0065460124ABE54B467707D8080743F00888
:100BDC00B4E60F001800203FF8408446202903D0CB
:100BEC004027791A8B401A43531E9A4163461700CB
:100BFC001F4335E600250024002684E60C00350052
:100C0C00203CE540202905D04024611A8E404946FD
:100C1C00314389464846411E884107002F43EFE582
:100C2C00D2085F0765461743D80887E6171ABA42F9
:100C3C0092419E1B5242B61A3302C1D47307FF086D
:100C4C00654601211F43F0084BE6002F7BD065461B
:100C5C001E0091463FE6811A8846C145A441F11A0F
:100C6C006442091B80242404214277D0101A82424A
:100C7C00924107009E1B5242B61A374300D0A0E0A7
:100C8C006546002400263EE65F07D20865461743FA
:100C9C00D80853E6811891429241F01852428018BC
:100CAC00030200D568E74707C9080F43C0080121B4
:100CBC0017E6D2085F071743D8083FE60C0000265A
:100CCC00002720E6002956D15F07D2081743D80821
:100CDC0034E60C001E00D00829E6C1087007014359
:100CEC00F008002F62D080242403204207D0DE08B5
:100CFC00264204D165463000D1085B0719434F0FDB
:100D0C00C900C9087F070F4318E60C003000203CCF
:100D1C00E0408446202905D04024611A8E40494683
:100D2C00314389464846411E8841614607000F43BE
:100D3C0030E620210027091A0EE51E00002F00D0F6
:100D4C0022E5002458E7002500240026DBE5C046F8
:100D5C00FE070000FF070000FFFF7FFF47460F4321
:100D6C0000D147E70E00C146B5E5DF086407022154
:100D7C0027430009B5E51900C0087707074311435D
:100D8C00F008002900D1D9E580210903084207D0D9
:100D9C00DC080C4204D1D2085B071A431700200070
:100DAC007B0FFF00FF085B071F43C7E50F00C5E57E
:100DBC00124BD20833405F075B02012417431E0B12
:100DCC00A1E5264212D00D4B6546020001241E40BF
:100DDC00E6E4210085E51700A8E53A00D4E4DB0839
:100DEC0064071C432700022100097AE5C008770735
:100DFC00074365460021F00873E5C046FFFF7FFFFF
:100E0C00F0B5DE46454657464E46E0B587B00092F3
:100E1C0001930B031B0B9B46CA0F4B00040080462F
:100E2C005B0D029200D198E07C4A934237D0594630
:100E3C00420FC9000A43802109041143C2009046A5
:100E4C00774A894692469A44002300240393009ED5
:100E5C00019F3B031B0B9B467B0030005B0DFD0F82
:100E6C00002B59D06D4A934248D05946720FC90095
:100E7C000A438021090411438B466949F2008C46D0
:100E8C0051466344CB1A9A460021029E6E40F6B23C
:100E9C000F2C00D9CEE0634BA4001B599F465A4639
:100EAC000243914600D090E09A46022390460824D3
:100EBC000393CCE7CB464246029D0399022900D10D
:100ECC00DEE1032900D18DE0012900D079E12E006B
:100EDC0000220023002490461B052343F6073343CE
:100EEC004046190007B0F0BCBB46B246A946A04626
:100EFC00F0BD002200249046484BEDE75A46009B7B
:100F0C001A43494B9C46E244002A59D102231C4304
:100F1C00002302219B46B8E75A46009B1A4349D04E
:100F2C005B46002B00D19CE1584601F021FB0200EE
:100F3C0003000B3A1D27009EBA1A19005846D640DA
:100F4C0008398840320002439346009A8A40374958
:100F5C0053448A4600219A4497E75B4603439946DB
:100F6C0021D05B46002B00D169E1584601F000FB13
:100F7C000B235B429C460200844466461D239B1B4C
:100F8C00260011005846DE400839884033000343E0
:100F9C00994623008B409846254B00249B1A9A4671
:100FAC000023039353E7002398469A460133042405
:100FBC0003934CE701231C43002301219B4664E768
:100FCC000323320003211C435FE79A460323D946CF
:100FDC000C2403933BE700238024984600260F4BF8
:100FEC00240379E780245B4624031C4324032E004E
:100FFC0090460A4B240B6FE780244B462403234274
:10100C0002D05B462342F0D080244B4624031C4381
:10101C002403029E014B240B5EE7C046FF07000031
:10102C0001FCFFFFEC7D000801F8FFFFF30300005B
:10103C000DFCFFFFCB4500D2F8E000D1F3E001231B
:10104C005B429C46444648460025E2445B46170EEC
:10105C001B021F43190C3B04120200971F0C9146F4
:10106C0002910397FFF7CEF802007A430B04210C90
:10107C00804619438A4209D9009F0123BC465B4232
:10108C0061449C46E0448F4200D85CE1881A029986
:10109C00FFF7B8F8039A240442430904240C030014
:1010AC000C43A24206D90099013B8C466444A142F0
:1010BC0000D842E1A01A424612041A4393464B460A
:1010CC0059461B0C1F0004930B0449460904090CD8
:1010DC000C001B0C5C43120C7B43884651437A4337
:1010EC00270CBC465B186344994203D98021490202
:1010FC008C466244190C24041B04240C8A181C19F9
:10110C00904202D316D1A54214D25B46009F013BFC
:10111C004D4405934D459B41BC465B426344C0180E
:10112C00874200D302E1824200D929E100D124E1B7
:10113C00059B9B462C1BA542AD41009B801A6D4222
:10114C00401B834200D10FE10299FFF75BF8039A31
:10115C000B044243210C050019438A4200D9CBE011
:10116C00881A0299FFF74EF8039A240442430904A3
:10117C00240C03000C43A24200D9CAE04146A41A35
:10118C002A041A43049F13041B0C594340467B4307
:10119C009C46150C68430B0C844463447D43984275
:1011AC0003D98020400284466544180C09041B04B2
:1011BC00090C40195B18844227D323D00123350036
:1011CC001A43944B5344002B60DD510700D086E04A
:1011DC002E00D1085A46D20106D55A468E4B1A40DB
:1011EC0080239346DB0053448C4A934200DD80E617
:1011FC005A4652070A4390465A465B055402240B42
:10120C005B0D69E63500002BDBD0009D511EAC4612
:10121C006444AC4200D29EE0844200D2E1E000D1B2
:10122C00EEE00A00CAE7424500D908E74B46DC0766
:10123C00580843465B081C434346DD0706E701F0AC
:10124C0097F915239C4684440200634620321C2BDC
:10125C0000DC92E623000838834099460023984628
:10126C009AE601F085F902000300153220331C2A9E
:10127C0000DC5FE600990838814000228B4666E668
:10128C0000222E0000249046654B25E62E000121FD
:10129C00C91A382900DD1BE61F297EDC61481400C1
:1012AC0050445B4682408340CC40501E82412343D5
:1012BC001A435B46CB40510709D00F21114004293A
:1012CC0005D0111D9142924152429B180A001902FD
:1012DC0000D49BE00022012300249046FCE50F2162
:1012EC001140042900D173E7111D914292415242E1
:1012FC002E00C90893446DE7009B013D9C46614458
:10130C008B4200D92CE78A4200D829E7851E61441C
:10131C0026E70099013B8C466444A14200D92DE795
:10132C00A24200D82AE7831E644427E7874200D0F4
:10133C00FEE6A94500D9FBE6F5E6A24200D8B9E6DF
:10134C00831E6444B6E68A4200D89FE6BC46831EE0
:10135C00984661449AE60A00844200D02EE74B4539
:10136C0000D02BE735002CE72A4B2F4A53449245EB
:10137C0043DB0122002193442CE7AC4200D8D7E692
:10138C0002235B429C4600994D444D459B41E344EE
:10139C008C465B426344C018CCE61F204042C31A03
:1013AC005846D840202904D05946204B53449940E4
:1013BC000A43531E9A41072319000243002411408B
:1013CC00134209D008331340042B1DD0131D934234
:1013DC0089411A0049424907D2080A439046002322
:1013EC007AE54946009F4D004D458941BC4649422E
:1013FC006144A946023A6418AEE70122524246E71C
:10140C009945EED30A00AAE70021E5E759075B02EC
:10141C001C0BE1E7FF030000FFFFFFFEFE070000CF
:10142C00FF0700001E04000002FCFFFF3E0400004A
:10143C00F0B55746DE464E464546E0B50D00040075
:10144C00E80F83460903D80F090B824619488C46CE
:10145C001F0369005E00490D3F0B760D814218D0C9
:10146C0086420FD00120B1420DD1BC450BD1944224
:10147C0009D1D3451CD0002905D160462043431E19
:10148C00984100E00120F0BCBB46B246A946A046FC
:10149C00F0BD01208E42F6D1614639430F0017434F
:1014AC002743F0D15B465246981A431E9841EAE70F
:1014BC000020E8E7FF070000F0B557464E464546CA
:1014CC00DE46E0B50D000E034900490D8A46DF0FDC
:1014DC00E90FBC4683B02F4F0400804601915800A1
:1014EC0019039146360B090B400DBA451DD0B84275
:1014FC000DD05746002F2AD13443002824D10A435B
:10150C0036D0002C41D163465800013815E0114308
:10151C0038D15346002B01D12643F4D0019B6345AF
:10152C0007D1019B5800013807E026432AD15045CA
:10153C0021D00120019B5F42384303B0F0BCBB4675
:10154C00B246A946A046F0BD002CDCD0E6E7002848
:10155C00EFD0019B6345ECD18245EADCE1DB8E42A6
:10156C00E7D8DED1C845E4D80020C845E5D2D8E795
:10157C00002CE2D0DDE7114304D1019B6345D8D1A7
:10158C000020DAE702204042D7E7019B6345E6D012
:10159C00CFE7C046FF070000F0B557464E4645461C
:1015AC00DE46E0B50D000E034900490D8A46DF0FFB
:1015BC00E90FBC4683B02E4F0400804601915800C1
:1015CC0019039146360B090B400DBA451ED0B84293
:1015DC000DD05746002F27D13443002833D10A436E
:1015EC0034D0002C40D163465800013815E011432B
:1015FC0012D15346002B01D12643F4D0019B6345F5
:10160C001DD00120019B5F42384306E0264303D1E5
:10161C005045F6D111431CD0022003B0F0BCBB46A0
:10162C00B246A946A046F0BD0028EAD0019B63450E
:10163C00E7D18245E5DC02DB8E42E2D80ED0019B7D
:10164C0058000138E9E7002CCDD0D7E7002CE4D0C6
:10165C00D7E7019B00206345DFD0D2E7C845D0D83F
:10166C000020C845D9D2EAE7019B6345E4D0C8E71E
:10167C00FF070000F0B557464E46DE464546E0B53E
:10168C001F000B031B0B16009A46CA0F4B000400DD
:10169C00914685B05B0D00D1CFE1CD4A934255D038
:1016AC005146420FC9000A43802109041143C2006C
:1016BC009046C84A8A4693469B44002300250293D1
:1016CC003C037B00FA0F0196240B5B0D009200D1BA
:1016DC0088E1BF4A934200D192E0BE4A94466344EB
:1016EC009B440A2D42DCE400730F234380244946BB
:1016FC0024041C43F3000193009B00205940CBB2FF
:10170C000393022D00DC94E00123AB401D00A623C3
:10171C002A00DB001A401D4200D029E290239B00D6
:10172C001D4200D14DE20023802499462403A84B8E
:10173C0010004A461B052343D2071343190005B07A
:10174C00F0BCBB46B246A946A046F0BD5246024389
:10175C00904600D0ACE19B460223924608250293AA
:10176C00AEE7009BA2469946019B9846029B022B32
:10177C0000D1CAE1032B00D192E1012B10D100233F
:10178C0000240022D4E701227B083A40134352463E
:10179C00D2071343984653465B089A46039B9946D7
:1017AC005B46581C8023DB005B44002B00DCB1E162
:1017BC00424652070BD00F2241460A40042A06D05B
:1017CC004246111D4145924188465242924452462E
:1017DC00D20106D55246804B1A4080239246DB003C
:1017EC00C3187E4A934200DD8FE14246D10852462F
:1017FC0052070A4351465B054C02240B5B0D97E7DD
:10180C00734B26439C46E344002E00D16FE1032327
:10181C0049461D43009B5940CBB203930A2D00DD72
:10182C0033E10123AB401D000323029388222A429B
:10183C0097D1424643461204120C160001981D0C17
:10184C00030C0004000C4643B4461E006E43009685
:10185C00160007005E436146B0466F430E0CB84459
:10186C004644B74205D9802149028846009F474427
:10187C00009761460904090C370C36048C4631007C
:10188C00614401911100260C2404240C61438C4604
:10189C002100694389466146090C884672434A44D3
:1018AC0042447543914503D98021490288464544F9
:1018BC00110C884661460904090C8C4612046244DA
:1018CC00B91802915146090C8C4651460F043F0C35
:1018DC003900414345448846614641438A46414666
:1018EC006046090C894658437B4353444B449A4504
:1018FC0003D98021490289464844190C894641463E
:10190C000904090C8846390061431B04434488468A
:10191C0061464C4371438C46414677430E0C3F194C
:10192C00F6194844B44203D9802149028946CC4473
:10193C000299009F894631044F448946414697429B
:10194C0092410C04240C4C44FF1852426419A11807
:10195C009F429B41884682465B4299469045924104
:10196C00AC42A441C244D14452426442144399450E
:10197C009B41824592415B42524213434A46360C8C
:10198C00A419E31863445B02D20D1A4301999246E1
:10199C007A020A43501E8241FF0D17434A465202F7
:1019AC001743B846DB0100D5EDE60D4B039A5B44BB
:1019BC009146002B00DCACE03A00520700D110E756
:1019CC000F2258463A40042A00D0F9E609E7C046EF
:1019DC00FF07000001FCFFFFFFFFFFFEFE070000FA
:1019EC00FF030000220032436FD0002C00D1C2E074
:1019FC00200000F0BDFD020003000B3A1D20821AEE
:101A0C0030001900D04008398C40020022433400C9
:101A1C008C405946CB1A86498B469B440A2D00DDD7
:101A2C00A4E64946009B01945940CBB21400002017
:101A3C000393022D00DD67E6FBE65346034398460D
:101A4C003CD05346002B00D1A3E0504600F090FD53
:101A5C000B235B429C46020084441100504608391B
:101A6C0088401D23804660461B1A2000D840030086
:101A7C00404603439A4623008B4098466C4B002506
:101A8C009B1A9B46002302931AE60F2D00D0C9E047
:101A9C00802352461B031A4202D01C4200D192E012
:101AAC008024534624031C4324034246240B3EE665
:101ABC009B46032380460C25029301E600239A469D
:101ACC009B46013304250293FAE501210D430A2DAF
:101ADC0000DD4BE6494600984140C9B20391022D06
:101AEC0000DC96E000230024012001930CE649461B
:101AFC000223009A2B435140CAB203920A2B00DDF9
:101B0C0034E6002D57D1039B994600240022494B03
:101B1C000EE658460121C91A382900DD2FE61F2987
:101B2C0056DD1F2254465242D31ADC40202907D0DE
:101B3C00414B42469C465346604483401A43904670
:101B4C0042460721531E9A410B00224313400024A6
:101B5C00114209D00F231340042B5DD0111D91426B
:101B6C009B410A005B425B07D2081A430023DFE566
:101B7C00039B9946FAE5019800F0FAFC0200030079
:101B8C00153220331C2A00DC38E7019A08388240D1
:101B9C003FE700F0EDFC15239C46844402006346AD
:101BAC0020321C2B00DC58E7002398462300083811
:101BBC0083409A4662E71D00002300240220019313
:101BCC00A2E5029032E61C43009B019A9946AEE5D1
:101BDC001A4B5246C31840469A40C84002434046EE
:101BEC0098400300581E834154461A43CC40530777
:101BFC0009D00F231340042B05D0131D934292419F
:101C0C005242A4181A00230208D5012300240022F2
:101C1C008EE5894600248BE50023A5E76307640263
:101C2C00240BA1E7009BA2469946019B984637E7F7
:101C3C000DFCFFFFFF0700003E0400001E04000027
:101C4C00F0B557464E464546DE46E0B583B00090AB
:101C5C0001910C034D00CE0F610A009C5F00640FD4
:101C6C000C43009900920193C80019037B0D99460F
:101C7C00019BCC4FDB0F9C464B0A00998046490FC9
:101C8C001943009B8B46DA0092466D0DB94500D185
:101C9C00BFE00123614659404B468C46EB1A8E42FD
:101CAC0075D0002B00DCA3E24946002900D1CEE020
:101CBC00BD4200D100E20127382B19DC80275946A0
:101CCC003F0439438B461F2B00DDFAE12027F91A1C
:101CDC008C4659466746B9400F001100D9400F4356
:101CEC0061468A40511E8A415946D9401743641AAD
:101CFC00C71BB84280414042241A230200D440E161
:101D0C006402640A002C00D154E1200000F030FC85
:101D1C000300083B20213800CA1AD0409C40020026
:101D2C009F4022439D4200DDA6E1581B0130091A59
:101D3C003C008F40C4407B1E9F4113008B402743C7
:101D4C001F43C2403B0014000025134300D1F7E1B0
:101D5C007B0700D177E30F2338003B40042B04D0E2
:101D6C00381DB842BF417F42E419230200D468E316
:101D7C008C4B01359D4200D1F4E08B4B6D051C4022
:101D8C006D0D6707C00864020743240BECE0002BC1
:101D9C0000DC29E34946002900D0D6E0594611431E
:101DAC0000D12EE1591E012B00D1E6E1BB4200D13E
:101DBC0082E101270B00382914DC1F2B00DD3CE2EB
:101DCC002027F91A8C4659466746B9400F00110076
:101DDC00D9400F4361468A40511E8A415946D94029
:101DEC00174364183F18874280414042241823024D
:101DFC0000D4C6E06B4B01359D4200D1B2E001210D
:101E0C00694B7A081C4039400A43E70717436408BA
:101E1C009EE7664B11438A46EB18002928D066458D
:101E2C002CD0002B5BD0002D00D12CE15B466646FC
:101E3C005F07D2081743DD083B002B4300D1E2E0DB
:101E4C00802424032C432403564D240B8CE0594648
:101E5C00114300D1D5E0591E012B00D1B9E1BB4291
:101E6C0000D1B1E101270B00382900DD40E72AE75A
:101E7C006146012779408C466645D2D1002B00D1B2
:101E8C00C5E0002D00D055E14B462500054300D19F
:101E9C0012E2591E8C46012B00D149E2414DAB4256
:101EAC0000D18FE20127382911DC63461F2B00DD9E
:101EBC005BE26146202327005B1A050098409F4097
:101ECC00CD40431E9841CC402F430743A344BF1839
:101EDC009742924152425A4414004D4687E7344F80
:101EEC006B1C3B4200D0B6E05946230011430F0057
:101EFC000343002D00D026E1002B00D1C0E10029C6
:101F0C0000D1A1E0831A98465B464045AD41E31AE7
:101F1C006D425B1B80252D042B4200D14BE15B46AF
:101F2C00101A824292411C1B070001266346524242
:101F3C00A41A27431E40002F00D142E12C4200D1AD
:101F4C006DE2194B01251C401BE7BD4200D13BE162
:101F5C000127382B00DD45E7802759463F043943DC
:101F6C008B462AE7002400272D052543F607354329
:101F7C003800290003B0F0BCBB46B246A946A046C7
:101F8C00F0BD7B0704D00F233B40042B00D0E7E6C9
:101F9C002B00F808034A67070743E508934200D172
:101FAC004AE7A5E0FF070000FFFF7FFF01F8FFFFF6
:101FBC00FE070000380000F0DBFA030018331F2B7B
:101FCC0000DCA7E63A00083882409D4200DD8AE03A
:101FDC005B1B581C1F2800DCD8E117001F3BDF409F
:101FEC00202805D040231B1A9A40531E9A411743B0
:101FFC000025002F00D1E5E07B0700D0ABE62C00DC
:10200C00C6E7C008C6E700270024D14DACE7D14F86
:10201C006B1C3B4271D123000343002D00D04EE1D9
:10202C005746002B00D1B5E1002F0DD08318834209
:10203C0080415C4440422418220200D5C8E11F00B4
:10204C009846274300D1BCE043466707DB081F4393
:10205C00E50800234CE0831A98465B464045BF4197
:10206C00E31A7F42DB1B1F027CD447461F4300D17F
:10207C00A6E01C00474645E6B74CED1A14407B071A
:10208C0000D080E784E74B462500054366D05F1EF1
:10209C00012B00D1FCE0AE4DAB4200D15EE16646B7
:1020AC00382F00DCB4E00120171ABA4292415B468B
:1020BC0052424D469C1A20E66707C0080743E508C4
:1020CC00BAE61F005946203FF9400F00202B05D0DF
:1020DC004021CB1A594699400A43924653465A1E00
:1020EC0093411F4304E6EB1A9B4D15406F07ED0817
:1020FC002C035D05240B6D0D36E7954DAB4200D1DD
:10210C00D6E082182100824280415944404208188E
:10211C00C707520817434408520700D485E10F2221
:10212C001D003A40042A00D01AE6FF086407274332
:10213C000509DDE75B46D2085F071743DD087BE640
:10214C000027002410E7002B00D0D6E0002900D097
:10215C002FE1802400267E4D240305E766465C466D
:10216C00D00817E75B46171ABA4292411C1B01268E
:10217C0063465242A41A1E40C4E583188342804130
:10218C005C44404225182A0200D4DAE0724A5B080B
:10219C001540EA071A4369085B0700D44AE10F238C
:1021AC001340042B00D1FCE0171D9742A44164425C
:1021BC0002256418ECE647461C001F4300D043E799
:1021CC00002600250024CFE6C00867070743E50872
:1021DC0032E6871A5B46B8428041E41A4042241A20
:1021EC00230228D46307FF081F43E50801237FE778
:1021FC00002B00D173E64B465F1B3B00002D00D13A
:10220C0042E7382F00DDECE080230E001B041C435A
:10221C001F2F25DC20252300ED1B0100A840AB401F
:10222C00F940451EA8410B43FC4018435B461B1B61
:10223C009B4639E76646012562E51F005946203F5B
:10224C00F9408C46202B05D040275946FB1A994063
:10225C000A43924657467B1E9F4163461F43C1E586
:10226C003B002500203BDD40202F04D04023DB1B0E
:10227C009C40204380464046431E9841284313E728
:10228C0000299DD0012663465C4690461E40DBE645
:10229C00171A5B46BA4292411C1B5242A41A2302E3
:1022AC00C8D46307FF081F4366460123E5081FE7F0
:1022BC001D000024002757E65C46D0086AE6002B78
:1022CC0000D137E75346C00867070743E508002BE2
:1022DC0000D1B1E580231B031D4208D05946C80824
:1022EC00184204D1D20849070A43170005007B0F96
:1022FC00FF00FF085B071F439EE5C00863071843F8
:10230C00E508002953D080231B031D420AD05946EF
:10231C00CC081C4206D1012663462500D00849078B
:10232C0008431E40470FC000C0087F07074383E5E2
:10233C008318934292415C445242A5182A0200D55C
:10234C0024E76F07DB081F43ED080123D0E6C046E6
:10235C00FF070000FE070000FFFF7FFF5B46D2086F
:10236C005F0766461743DD0866E52500203BDD4028
:10237C006346202B05D0402361465B1A9C402043CA
:10238C00804647467B1E9F412F43A0E52021002716
:10239C00091AD2E4002F00D113E75C461700002580
:1023AC00F6E5D708490702230F432D09A0E60700DD
:1023BC0042E55B4601265F07DD086346D2081743FA
:1023CC001E4039E55B46D2085F071743DD0833E54D
:1023DC001E4ADB0822405707520201251F43140BEB
:1023EC00C2E50E0001205FE6002B0DD04B465B1BB7
:1023FC009C46002D00D148E50127382B00DD66E511
:10240C0080231B041C4350E56B1C114D2B4200D048
:10241C0073E65946230011438A46034300E66707D7
:10242C00C00800230743E50862E66407FF0827435A
:10243C0005095DE6D208490711430F0002232D0957
:10244C0056E60700A4E538008FE4C046FFFF7FFF87
:10245C00FE0700000B00020070B5164D0C0382B095
:10246C004900002000920193240B490DDE0FA94274
:10247C0004DD1148814203DD104BF01802B070BD31
:10248C008020400320430E4C641A1F2C08DD0D4B9A
:10249C005B1AD84003005842002EEFD11800EDE72C
:1024AC00094B009A9C46030061448B40E240134365
:1024BC00F1E7C046FE0300001D040000FFFFFF7F94
:1024CC003304000013040000EDFBFFFF70B500287F
:1024DC0016D0C317C5185D40C40F280000F048F88B
:1024EC00104B1B1A5B055B0D0A2814DC02002E0036
:1024FC00153296400B22121AD5402D032D0B03E0FA
:10250C0000240023002500261B052B43E40723434E
:10251C003000190070BD0B3885402D0300262D0BA3
:10252C00F2E7C0461E04000010B5041E10D000F0E7
:10253C001FF80E4B1B1A5B055B0D0A280FDC0B22D8
:10254C002100121AD14015300A038440120B01E00D
:10255C00002300221B0513432000190010BD22008C
:10256C000B38824012030024120BF3E71E04000008
:10257C001C2101231B04984201D3000C10391B0AA7
:10258C00984201D3000A08391B09984201D300096B
:10259C00043902A2105C40187047C04604030202C2
:1025AC0001010101000000000000000010B500292D
:1025BC0003D1FFF7DDFF203002E00800FFF7D8FF62
:1025CC0010BDC04690B589B000AF0C243B19180063
:1025DC0014231A00002105F0D9FA2A4B5A6B294B07
:1025EC0004210A435A63274B5B6B04221340BB60E4
:1025FC00BB68244B5A6B234B20210A435A63214B53
:10260C005B6B202213407B607B681E4B5A6B1D4B0F
:10261C0001210A435A631B4B5B6B012213403B6045
:10262C003B68A023DB0500222021180002F002FCED
:10263C003B19802292011A603B19882252035A607E
:10264C003B1900229A603B190F4A1900100002F046
:10265C0085FA21007B1820221A607B1801225A600F
:10266C007B1800229A607B180222DA607A18A02369
:10267C00DB051100180002F071FAC046BD4609B026
:10268C0090BDC046001002400008005090B593B0B9
:10269C0000AF01F0FDFF00F0DFF8FFF793FF01F052
:1026AC0017FF01F017FE00237B64FB1C00221A703D
:1026BC00554B180000F06CF9544B180000F068F9F9
:1026CC00534B180000F064F9524B180000F060F9FD
:1026DC00514B180000F05CF9504B180000F058F901
:1026EC004F4B180000F054F94E4B180000F050F905
:1026FC004D4B180000F04CF94C4B180000F048F909
:10270C0033E001235B42F91C4948012203F0F6FE39
:10271C00031E2AD1FB1C1B780D2B23D0FB1C1B7812
:10272C00082B03D0FB1C1B787F2B0AD17B6C002B56
:10273C001AD07B6C013B7B643E4B180001F0ACFD66
:10274C0012E07B6C5A1C7A64FA1C11781022BA18AD
:10275C00D154FB1C1B781A00374B1100180001F0E8
:10276C009BFD02E0C04600E0C0467B6C302B03D8DA
:10277C00FB1C1B780D2BC4D110243A197B6CD3187D
:10278C0000221A702D4B180000F002F92B4B180088
:10279C0000F0FEF82A4B180000F018F9274B18002F
:1027AC0000F0F6F83B19180000F010F9234B180054
:1027BC0000F0EEF8214B180000F0EAF8214B18005D
:1027CC0000F004F91D4B180000F0E2F81E4B180045
:1027DC0000F0FCF8194B180000F0DAF81B4B18004D
:1027EC0000F0F4F8154B180000F0D2F8184B180054
:1027FC0000F0ECF8114B180000F0CAF8154B18005B
:10280C0000F0C6F8C046FDE7087C00081C7C0008F8
:10281C003C7C00085C7C00087C7C00089C7C0008EC
:10282C00BC7C0008DC7C0008FC7C00083C7D0008BB
:10283C0054000020547D0008587D00085C7D000881
:10284C00607D0008687D0008787D0008887D0008A0
:10285C009C7D0008B47D000890B595B000AF1424A1
:10286C003B1918003C231A00002105F08FF93B1D81
:10287C00180010231A00002105F088F980239B0012
:10288C00180002F0F5FA3B190A221A603B19802253
:10289C005200DA6021007B1800221A617B1840225A
:1028AC005A617B1801229A617B1802221A627B18EA
:1028BC0002225A627B1800229A627B180822DA6282
:1028CC007B18802292021A637B18802292045A632E
:1028DC007B18802292059A637B18180002F014FB77
:1028EC00031E01D000F02CF83B1D07221A603B1D83
:1028FC0002225A603B1D00229A603B1D0022DA60C6
:10290C003B1D0221180002F05FFE031E01D000F0F7
:10291C0017F8C046BD4615B090BD000080B582B01A
:10292C0000AF0200FB1D1A70F91D0448012301229F
:10293C0003F036FDC046BD4602B080BD54000020F9
:10294C0080B500AF72B6C046C046FDE780B584B016
:10295C0000AF0200FB1D1A700023FB600CE00B4A59
:10296C00FB68D3181B78FA1D12789A4201D1FB68C8
:10297C0007E0FB680133FB60FB68252BEFDD0123CF
:10298C005B421800BD4604B080BDC0462C7E0008DA
:10299C0080B582B000AF78600CE07B685A1C7A601E
:1029AC001B781A00084B1100180001F075FC64200C
:1029BC0001F0F4FE7B681B78002BEED1C046C046BC
:1029CC00BD4602B080BDC046B87D000880B586B05B
:1029DC0000AF786000237B6157E000233B6147E048
:1029EC003B697A68D2180F217B1812781A700A008A
:1029FC00BB181B78602B08D9BB181B787A2B04D812
:102A0C00BB18BA181278203A1A700F23FB181B78CF
:102A1C001800FFF79BFF0300BB60BB68013313D0AA
:102A2C007B691A005200D21853001A00B9680B00C7
:102A3C001B015B1A5B00D218184BD218184B1100F3
:102A4C00180001F029FC0DE00F23FB181B78202B3C
:102A5C0004D1144B180001F01FFC03E0124B1800BA
:102A6C0001F01AFC642001F099FE3B6901333B61D3
:102A7C003B697A68D3181B78002BB1D10B4B18002B
:102A8C0001F00AFC7B6901337B617B69042BA4DDBB
:102A9C00C046C046BD4606B080BDC046547E000848
:102AAC00BC7D0008C07D0008C87D0008D07D0008F2
:102ABC0080B584B000AFB9607A603B600F23FB181F
:102ACC00021C1A70C046BD4604B080BD80B584B0EF
:102ADC0000AFB9607A603B600F217B18021C1A7042
:102AEC000A00BB181B78002B04D0BB181B781800ED
:102AFC00FFF714FFC046BD4604B080BD80B584B05E
:102B0C0000AF786039607B68FB6002E0FB680133E2
:102B1C00FB60FB681B78002B04D03B685A1E3A60A4
:102B2C00002BF3D1FA687B68D31A1800BD4604B0A9
:102B3C0080BD80B582B000AF0200FB1D1A70FB1D7A
:102B4C001B782F2B05D9FB1D1B78392B01D80123A2
:102B5C0000E000231A1C01231340DBB21800BD4611
:102B6C0002B080BD80B584B000AF78600023FB60FC
:102B7C000EE0FA6813009B009B185B0018007B6842
:102B8C001B68591C7A6811601B78C318303BFB60BA
:102B9C007B681B681B781800FFF7CBFF031EE8D17E
:102BAC00FB681800BD4604B080BD90B587B000AF7F
:102BBC00F860B9607A603B607B683B617B6B02229A
:102BCC00134024D17B6B0122134020D1FB6A7B6123
:102BDC000AE07A68531C7B603B68B968FC6820206B
:102BEC00A0477B6901337B617A693B6B9A42F0D3D6
:102BFC000DE0FB6A013BFB62BA6AFB6AD3181878DA
:102C0C007A68531C7B603B68B968FC68A047FB6A18
:102C1C00002BEED17B6B022213400ED007E07A68BA
:102C2C00531C7B603B68B968FC682020A0477A681D
:102C3C003B69D31A3A6B9A42F1D87B681800BD46AF
:102C4C0007B090BD90B589B004AFF860B9607A60F8
:102C5C003B60BB6B0222134034D17B6B002B17D033
:102C6C00BB6B0122134013D02823FB181B78002BBD
:102C7C0003D1BB6B0C2213400AD07B6B013B7B63F3
:102C8C0006E07B6A5A1C7A623A6AD31830221A70B0
:102C9C007A6A3B6B9A420AD27B6A1F2BF1D906E007
:102CAC007B6A5A1C7A623A6AD31830221A70BB6B50
:102CBC000122134006D07A6A7B6B9A4202D27B6A5D
:102CCC001F2BEDD9BB6B1022134056D0BA6B80234F
:102CDC00DB00134016D17B6A002B13D07A6A3B6B56
:102CEC009A4203D07A6A7B6B9A420BD17B6A013B86
:102CFC007B627B6A002B05D0FB6A102B02D17B6AAE
:102D0C00013B7B62FB6A102B0ED1BB6B2022134064
:102D1C000AD17B6A1F2B07D87B6A5A1C7A623A6AE3
:102D2C00D31878221A701EE0FB6A102B0ED1BB6BE5
:102D3C00202213400AD07B6A1F2B07D87B6A5A1CAF
:102D4C007A623A6AD31858221A700CE0FB6A022B8A
:102D5C0009D17B6A1F2B06D87B6A5A1C7A623A6AA5
:102D6C00D31862221A707B6A1F2B06D87B6A5A1CF6
:102D7C007A623A6AD31830221A707B6A1F2B23D8D6
:102D8C002823FB181B78002B07D07B6A5A1C7A620D
:102D9C003A6AD3182D221A7016E0BB6B042213402A
:102DAC0007D07B6A5A1C7A623A6AD3182B221A70A3
:102DBC000AE0BB6B0822134006D07B6A5A1C7A626D
:102DCC003A6AD31820221A703C687A68B968F86895
:102DDC00BB6B03937B6B02937B6A01933B6A0093FF
:102DEC002300FFF7E2FE03001800BD4605B090BDBE
:102DFC0090B597B008AFF860B9607A603B6000237B
:102E0C007B63BB6C002B03D1FB6D10229343FB65E2
:102E1C00FA6D8023DB00134002D0BB6C002B33D047
:102E2C00BB6C396D1800FDF7EDF90B001A0033215E
:102E3C007B181A700A00BB181B78092B04D8BB1816
:102E4C001B783033DAB20DE0FB6D2022134001D039
:102E5C00412300E061233322BA1812789B18DBB2AD
:102E6C000A3BDAB27B6B591C796310217918CA546E
:102E7C00396DB86CFDF740F90300BB64BB6C002BDB
:102E8C0002D07B6B1F2BCBD93C687A68B968F86889
:102E9C00FB6D0693BB6D05937B6D04933B6D0393A8
:102EAC004C23FB181B7802937B6B01931023FB18AC
:102EBC0000932300FFF7C6FE03001800BD460FB0B9
:102ECC0090BDB0B596B008AFF860B9607A603B6061
:102EDC0000237B63BB6CFA6C134303D1BB6E1022D3
:102EEC009343BB66BA6E8023DB00134003D0BB6CEC
:102EFC00FA6C13433AD0B86CF96CBA6DFB6DFDF7F4
:102F0C00AFFA1000190033243B19021C1A7022006E
:102F1C00BB181B78092B04D8BB181B783033DAB2DA
:102F2C000DE0BB6E2022134001D0412300E0612351
:102F3C003322BA1812789B18DBB20A3BDAB27B6BDD
:102F4C00591C796310217918CA54BA6DFB6DB86C91
:102F5C00F96CFDF785FA02000B00BA64FB64BB6CDC
:102F6C00FA6C134302D07B6B1F2BC4D9BB6D3D682D
:102F7C007C68B968F868BA6E06927A6E05923A6EF9
:102F8C00049203935023FB181B7802937B6B0193E1
:102F9C001023FB1800932B002200FFF753FE0300B5
:102FAC001800BD460EB0B0BDF0B59DB006AFF860D0
:102FBC00B9607A603B6000237B6500220023BA6312
:102FCC00FB633A6F7B6F386F796FFDF71BFA031E4B
:102FDC0012D13C687A68B968F8688023FB181B68C2
:102FEC000393FB6F029303230193BF4B00932300C6
:102FFC00FFF7DBFD030011E201225242BB4B386F9D
:10300C00796FFDF705FA031E12D03C687A68B9682F
:10301C00F8688023FB181B680393FB6F029304234F
:10302C000193B34B00932300FFF7BFFD0300F5E1C1
:10303C0001225242AF4B386F796FFDF7FDF9031E39
:10304C0024D08023FB181B680422134001D0AA4B08
:10305C0000E0AA4B8022BA18126804210A4001D061
:10306C00042200E003223E687D68BC68F868802179
:10307C00791809680391F96F02910192009333005A
:10308C002A002100FFF791FD0300C7E100229C4BB1
:10309C00386F796FFDF7D0F9031E07D10022994BD9
:1030AC00386F796FFDF7B4F9031E15D03D687C6855
:1030BC00B968F8688023FB181B680493FB6F0393B3
:1030CC00BB6F02933A6F7B6F009201932B0022002F
:1030DC0000F0A8F90300A1E153243B1900221A7057
:1030EC0000220023386F796FFDF792F9031E0CD084
:1030FC003B1901221A703A6F7B6F00200021FEF7FA
:10310C009FFD02000B003A677B678023FB181A684F
:10311C008023DB0013400CD10623BB6709E07B6DD9
:10312C005A1C7A651022BA183021D154BB6F013B5E
:10313C00BB677B6D1F2B02D8BB6F092BEFD8386F89
:10314C00796FFFF787F90300FB64F86CFFF7BEF9A2
:10315C0002000B00386F796FFEF772FD02000B0056
:10316C0010001900684ABB6FDB00D3181A685B6843
:10317C00FEF780FA02000B003A637B63386B796BC5
:10318C00FDF78EF90300BB64B86CFFF7CDF90200B4
:10319C000B00386B796BFEF753FD02000B00BA6322
:1031AC00FB630022594BB86BF96BFDF745F9031E15
:1031BC0015D0BB6C0133BB64B86CFFF7B5F9524A40
:1031CC00BB6FDB00D3181A685B68FDF73FF9031E71
:1031DC0017D00023BB64FB6C0133FB6411E00022AD
:1031EC004A4BB86BF96BFDF713F9031E09D1BB6C95
:1031FC00002B03D0BB6C0122134002D0BB6C0133FB
:10320C00BB64BB6F002B2FD1F86CFFF75FF902008A
:10321C000B00386F796FFEF713FD02000B00BA63D9
:10322C00FB6301231C1C0022384BB86BF96BFDF7B8
:10323C00EFF8031E01D100231C1CE3B20122534002
:10324C00DBB2002B07D10022304BB86BF96BFDF7CA
:10325C00F3F8031E46D0FB6C0122134000D170E042
:10326C00FB6C0133FB646CE0BB6F7B641BE07B6C21
:10327C00013B7B64BB6C0A211800FCF7C3FF0B00FD
:10328C00DAB27B6D591C79653032D1B21022BA1882
:10329C00D154BB6C0A211800FCF72EFF0300BB6451
:1032AC00BB6C002B03D07B6D1F2BE0D908E0C04614
:1032BC0006E07B6D5A1C7A651022BA183021D15465
:1032CC007B6D1F2B04D87B6C5A1E7A64002BF0D1BB
:1032DC007B6D1F2B35D87B6D5A1C7A651022BA1862
:1032EC002E21D1542DE0C046D47D0008FFFFEFFF06
:1032FC00D87D0008FFFFEF7FE07D0008E87D000827
:10330C0065CDCD4165CDCDC1688400080000E03F9E
:10331C00FB6C0A211800FDF75FF80B00DAB27B6D2D
:10332C00591C79653032D1B21022BA18D154FB6CC9
:10333C000A211800FCF76AFF0300FB64FB6C002BEE
:10334C0003D07B6D1F2BE3D900E0C04680217B1896
:10335C001B680222134023D17B181B6801221340E7
:10336C001ED0FB6F002B14D05323FB181B78002BA3
:10337C0004D17B181B680C2213400AD0FB6F013B55
:10338C00FB6706E07B6D5A1C7A651022BA18302157
:10339C00D1547A6DFB6F9A4202D27B6D1F2BF1D9FF
:1033AC007B6D1F2B27D85323FB181B78002B07D0C2
:1033BC007B6D5A1C7A651022BA182D21D1541AE053
:1033CC008023FB181B680422134007D07B6D5A1C0A
:1033DC007A651022BA182B21D1540CE08023FB18EB
:1033EC001B680822134006D07B6D5A1C7A6510228C
:1033FC00BA182021D1543C687A68B968F8688023DF
:10340C00FB181B680393FB6F02937B6D01931023D6
:10341C00FB1800932300FFF7C8FB03001800BD4600
:10342C0017B0F0BDF0B5A7B006AF78643964FA6395
:10343C00BB639826BB191A685B68B9190868496898
:10344C00FCF7E0FF031E13D001225242DA4BB919EC
:10345C0008684968FCF7F0FF031E09D101225242AB
:10346C00D64BB91908684968FCF7D2FF031E1BD06C
:10347C00BD6BFC6B396C786CA823FB181B68049330
:10348C00A423FB181B680393A023FB181B6802934F
:10349C009823FB181A685B68009201932B0022009A
:1034AC00FFF782FD030072E23B2338229B18DE19E2
:1034BC000123FB73002200239821791808684968BE
:1034CC00FCF7A6FF031E01D10023FB73FB7B3370BB
:1034DC003B2338229B18DB191B78002B0FD098212B
:1034EC007B181B683B609C23FB181A6880231B0607
:1034FC0053407B603A687B6879180A604B60A8235C
:10350C00FB181A688023DB00134003D10623A0228A
:10351C00BA1813609826BB191A685B68BA64FB6406
:10352C00BA6CFB6C1B0DBB620023FB62BB6A5B05B8
:10353C005B0DA34A94466344FB66BA6CFB6C00219A
:10354C001000884304001B031D0B002323433B6224
:10355C009C4B2B437B623B6A7C6ABB64FC64F86EBD
:10356C00FEF7B4FF984A994BFEF784F802000B0063
:10357C0010001900964A974BFDF77CF802000B00DF
:10358C0014001D00B86CF96C0022934BFEF758FB2D
:10359C0002000B0010001900904A914BFEF76AF8DC
:1035AC0002000B0020002900FDF764F802000B005C
:1035BC0010001900FEF74EFF0300FB67F86FFEF7D3
:1035CC0085FF884A884BFEF755F802000B00100067
:1035DC0019000022854BFDF74DF802000B0010007E
:1035EC001900FEF737FF0300FB66F86FFEF76EFF5E
:1035FC007F4A804BFEF73EF802000B0014001D00C2
:10360C00F86EFEF763FF7C4A7C4BFEF733F8020042
:10361C000B0020002900FEF713FB02000B003A669A
:10362C007B663A6E7B6E386E796EFEF723F802007D
:10363C000B00BA65FB65FB6E714A94466344BB6133
:10364C00DB17FB61BB691B057B6100233B613B699D
:10365C007C69BB64FC64BC6CFD6C386E796E0200DA
:10366C000B00FDF707F802000B00BA62FB623A6E22
:10367C007B6E00208021C905FEF7E2FA02000B00E8
:10368C003A627B6200225F4BB86DF96DFDF7B8FBB7
:10369C0002000B001000190000225B4BFCF7EAFF44
:1036AC0002000B00B86DF96DFDF7AAFB02000B00D0
:1036BC00100019000022554BFCF7DCFF02000B0038
:1036CC00B86DF96DFDF79CFB02000B00386A796A46
:1036DC00FCF7D0FF02000B00B86AF96AFDF790FB0B
:1036EC0002000B00100019000022364BFCF7C2FF41
:1036FC0002000B0020002900FDF7BCFF02000B00AC
:10370C00BA64FB64BA6CFB6CB91908684968FCF7BD
:10371C007FFE031E0CD0FB6F013BFB67B86CF96C92
:10372C000022394BFDF76CFB02000B00BA64FB6402
:10373C00FB6F632B04DCFB6F633301DB042300E0C2
:10374C000523BB67A823FB181A6880231B011340B1
:10375C0000D174E02E4A2F4B982439190868496817
:10376C00FCF774FE031E59D000222B4B3919086844
:10377C004968FCF74DFE031E50D0A0217B181B6836
:10378C00FA6F9A4207DA7B181A68FB6FD31A013B5F
:10379C007A18136003E00023A022BA181360A82142
:1037AC007B181B688022D20013437A181360002305
:1037BC00BB670023FB6742E0FFFFEF7FFFFFEFFFDC
:1037CC0001FCFFFF0000F03FFB799F501344D33FF7
:1037DC00B3C8608B288AC63F0000F83F61436F6313
:1037EC00A787D23F71A379094F930A400000E03FAD
:1037FC001655B5BBB16B0240EF39FAFE422EE63FCF
:10380C00FF03000000002C40000024400000184082
:10381C002D431CEBE2361A3F80842E41A0217B18ED
:10382C001B68002B0BD0A823FB181A688023DB0025
:10383C00134004D07B181B68013B7A181360A42238
:10384C00BB181B687B67BB181A68BB6F9A4204D9FC
:10385C007A6FBB6FD31A7B6701E000237B67A823C9
:10386C00FB181B680222134004D0BB6F002B01D045
:10387C0000237B67FB6F002B0CD0BA6CFB6C98247D
:10388C00391908684968FDF7BBFA02000B003919B1
:10389C000A604B60FB6B7B653B2338229B18DB1962
:1038AC001B78002B0BD09823FB181B683B639C23C5
:1038BC00FB181B68802212065A407A6305E0982395
:1038CC00FB185C681B683B637C63A823FA181368BD
:1038DC00314A1340BC6BFA6B396C786C04937B6F78
:1038EC000393A0257D192B6802933D6B7E6B00958D
:1038FC0001962300FFF758FB0300FB63BB6F002B03
:10390C0044D0A823FB181B682022134001D045206B
:10391C0000E06520FA6B531CFB63BB6B396C7C6C51
:10392C00A047FB6FDA179B1853409C46FB6FDB0FCD
:10393C00DBB2BA6F013ABD6BFC6B396C786C052647
:10394C0005960492002203920A2202920193634686
:10395C0000932B002200FFF74BFA0300FB63A82314
:10396C00FB181B680222134010D007E0FA6B531CA3
:10397C00FB63BB6B396C7C6C2020A047FA6B7B6DB6
:10398C00D31AA422BA1812689A42EFD8FB6B18000B
:10399C00BD4621B0F0BDC046FFF7FFFFF0B5C646EF
:1039AC0000B5A8B00AAFF862B9627A623B62002334
:1039BC007B66BB6A002B01D000F054FCAD4BFB6264
:1039CC0000F050FC3B6A1B78252B0DD03B6A187815
:1039DC007A6E531C7B667B6AB96AFC6AA0473B6AA9
:1039EC0001333B6200F03EFC3B6A01333B62002337
:1039FC007B673B6A1B78203B102B36D89A009E4B7A
:103A0C00D3181B689F467B6F012213437B673B6A6D
:103A1C0001333B620123BB662AE07B6F0222134316
:103A2C007B673B6A01333B620123BB6620E07B6F03
:103A3C00042213437B673B6A01333B620123BB6661
:103A4C0016E07B6F082213437B673B6A01333B62B2
:103A5C000123BB660CE07B6F102213437B673B6A30
:103A6C0001333B620123BB6602E00023BB66C04608
:103A7C00BB6E002BBDD100233B673B6A1B78180043
:103A8C00FFF757F8031E07D02023FB181800FFF789
:103A9C0069F803003B671CE03B6A1B782A2B18D1A2
:103AAC009023FB181B681A1D902179180A601B685B
:103ABC003B653B6D002B07DA7B6F022213437B6760
:103ACC003B6D5B423B6701E03B6D3B673B6A0133FF
:103ADC003B620023FB663B6A1B782E2B2BD17B6F42
:103AEC008022D20013437B673B6A01333B623B6A03
:103AFC001B781800FFF71DF8031E07D02023FB18B6
:103B0C001800FFF72FF80300FB6614E03B6A1B78E4
:103B1C002A2B10D19023FB181B681A1D90217918A1
:103B2C000A601B68FB64FB6C002B00DA0023FB664D
:103B3C003B6A01333B623B6A1B78683B122B47D8CC
:103B4C009A004E4BD3181B689F467B6F8022520005
:103B5C0013437B673B6A01333B623B6A1B786C2BDC
:103B6C0038D17B6F8022920013437B673B6A013311
:103B7C003B622FE07B6F802213437B673B6A0133F0
:103B8C003B623B6A1B78682B26D17B6F4022134328
:103B9C007B673B6A01333B621EE07B6F80225200E5
:103BAC0013437B673B6A01333B6216E07B6F8022D9
:103BBC00920013437B673B6A01333B620DE07B6FE2
:103BCC008022520013437B673B6A01333B6204E063
:103BDC00C04602E0C04600E0C0463B6A1B78672B3B
:103BEC0028DC252B1DDA30E3693B01229A401300B7
:103BFC00234A1A40511E8A41D2B2002A20D1802277
:103C0C001A40511E8A41D2B2002A00D0B8E280225A
:103C1C00D20013405A1E9341DBB2002B00D049E274
:103C2C0013E3253B422B00D90FE39A00154BD31815
:103C3C001B689F46782B00DD07E3692BD4DA04E37D
:103C4C003B6A1B78782B03D03B6A1B78582B02D12C
:103C5C0010233B661EE03B6A1B786F2B02D10823B6
:103C6C003B6617E03B6A1B78622B0DD102233B6647
:103C7C0010E0C046BD2A0008C88200080C8300086A
:103C8C0041900000588300080A233B667B6F10228A
:103C9C0093437B673B6A1B78582B03D17B6F2022A5
:103CAC0013437B673B6A1B78692B07D03B6A1B78F5
:103CBC00642B03D07B6F0C2293437B677A6F80233A
:103CCC00DB00134003D07B6F012293437B673B6A7D
:103CDC001B78692B04D03B6A1B78642B00D0B2E0B4
:103CEC007A6F80239B00134040D09023FB181B68F5
:103CFC000733072293431A000832902179180A607F
:103D0C001A685B683A637B633A6B7B6B002B05DA52
:103D1C0000200021801A994102000B0010001900AC
:103D2C007B6BDB0F3B6000237B603A783B6EBB61A7
:103D3C000023FB617B6A9C467E6EBD6AFB6A9846DB
:103D4C007B6F08933B6F0793FB6E0693BB69FC6913
:103D5C00049305940292009001916346320029006D
:103D6C004046FFF7AEF803007B66FAE07A6F8023DB
:103D7C005B00134025D09023FB181B681A1D902163
:103D8C0079180A601B68FB63FB6BDA179B185340AE
:103D9C001E00FB6BDB0FDAB27D6A7C6EB96AF86AC7
:103DAC007B6F05933B6F0493FB6E03933B6E029307
:103DBC00019200962B002200FFF71AF803007B6695
:103DCC00CFE07B6F4022134009D09023FB181B6877
:103DDC001A1D902179180A601B68DBB215E07B6F05
:103DEC008022134009D09023FB181B681A1D9021C8
:103DFC0079180A601B681BB207E09023FB181B683C
:103E0C001A1D902179180A601B683B643B6CDA1709
:103E1C009B1853401E003B6CDB0FDAB27D6A7C6E44
:103E2C00B96AF86A7B6F05933B6F0493FB6E03933F
:103E3C003B6E0293019200962B002200FEF7D8FFF6
:103E4C0003007B668DE07A6F80239B0013402BD0A0
:103E5C009023FB181B680733072293431A00083280
:103E6C00902179180A60186859683B6E3B610023F1
:103E7C007B617E6A7A6EBD6AFB6A9C467B6F089397
:103E8C003B6F0793FB6E06933B697C690493059427
:103E9C000023029300900191330029006046FFF744
:103EAC0010F803007B665CE07A6F80235B001340A4
:103EBC001DD09023FB181B681A1D902179180A60DD
:103ECC001A687D6A7C6EB96AF86A7B6F05933B6FE2
:103EDC000493FB6E03933B6E0293002301930092B9
:103EEC002B002200FEF784FF03007B6639E07B6F1A
:103EFC004022134009D09023FB181B681A1D9021F7
:103F0C0079180A601B68DBB215E07B6F80221340C6
:103F1C0009D09023FB181B681A1D902179180A6090
:103F2C001B689BB207E09023FB181B681A1D90219D
:103F3C0079180A601B687B647C6A7A6EB96AF86AC5
:103F4C007B6F05933B6F0493FB6E03933B6E029365
:103F5C00002301937B6C00932300FEF749FF0300C1
:103F6C007B663B6A01333B627CE13B6A1B78462BE8
:103F7C0003D17B6F202213437B679023FB181B68B4
:103F8C000733072293431A000832902179180A60EC
:103F9C00186859687E6A7A6EBD6AFC6A7B6F0493F6
:103FAC003B6F0393FB6E0293009001913300290049
:103FBC002000FEF7F9FF03007B663B6A01333B628E
:103FCC0050E13B6A1B78672B03D03B6A1B78472B6D
:103FDC0004D17B6F8022120113437B673B6A1B78F1
:103FEC00452B03D03B6A1B78472B03D17B6F2022D8
:103FFC0013437B679023FB181B68073307229343FB
:10400C001A000832902179180A60186859687E6A7B
:10401C007A6EBD6AFC6A7B6F04933B6F0393FB6EF5
:10402C00029300900191330029002000FFF7FAF968
:10403C0003007B663B6A01333B6213E10123FB65A2
:10404C007B6F022213400ED107E07A6E531C7B6605
:10405C007B6AB96AFC6A2020A047FB6D5A1CFA6582
:10406C003A6F9A42F1D89023FB181B681A1D9021C5
:10407C0079180A601B68D8B27A6E531C7B667B6A0F
:10408C00B96AFC6AA0477B6F022213400ED007E08E
:10409C007A6E531C7B667B6AB96AFC6A2020A04747
:1040AC00FB6D5A1CFA653A6F9A42F1D83B6A0133A0
:1040BC003B62D7E09023FB181B681A1D90217918DE
:1040CC000A601B68BB65FB6E002B01D0FB6E01E028
:1040DC0001235B42BA6D19001000FEF70FFD0300BF
:1040EC007B657A6F8023DB00134005D07A6DFB6E05
:1040FC00934200D913007B657B6F022213401AD1C7
:10410C0007E07A6E531C7B667B6AB96AFC6A2020D6
:10411C00A0477B6D5A1C7A653A6F9A42F1D80AE037
:10412C00BB6D5A1CBA6518787A6E531C7B667B6A19
:10413C00B96AFC6AA047BB6D1B78002B09D07A6F5B
:10414C008023DB001340EBD0FB6E5A1EFA66002B6B
:10415C00E6D17B6F022213400ED007E07A6E531C1F
:10416C007B667B6AB96AFC6A2020A0477B6D5A1C6F
:10417C007A653A6F9A42F1D83B6A01333B6271E03F
:10418C0008233B677B6F212213437B672B21202362
:10419C00CB18DB1900221A702023CB18DB191B78E3
:1041AC00002B25D09023FB181B681A1D9021791821
:1041BC000A601B68BB600023FB607D6A7C6EB96A79
:1041CC00F86A7B6F08933B6F0793FB6E0693102284
:1041DC0000230492059300230293BA68FB680092B3
:1041EC0001932B002200FEF76CFE03007B661CE0A3
:1041FC009023FB181B681A1D902179180A601B6804
:10420C001D007C6A7A6EB96AF86A7B6F05933B6F06
:10421C000493FB6E039310230293002301930095E8
:10422C002300FEF7E5FD03007B663B6A01333B622E
:10423C0018E07A6E531C7B667B6AB96AFC6A25208F
:10424C00A0473B6A01333B620CE03B6A18787A6EFC
:10425C00531C7B667B6AB96AFC6AA0473B6A0133D4
:10426C003B62C0463B6A1B78002B01D0FFF7AAFBD0
:10427C007A6E7B6A9A4202D37B6A5A1E00E07A6E8F
:10428C007B6AB96AFC6A0020A0477B6E1800BD46A9
:10429C001EB080BCB846F0BD0FB490B587B002AF6D
:1042AC002423FB18BB603C6A01235A42391D084881
:1042BC00BB6800932300FFF771FB0300FB60FB68F6
:1042CC001800BD4605B090BC08BC04B01847C046E9
:1042DC00D92A000880B586B000AF3B1D1800142306
:1042EC001A00002103F052FC3B0000221A602D4BF7
:1042FC002D4A1A602B4B00229A602A4B7F22DA60DF
:10430C00284BFF221A61274B00225A61254B0022B1
:10431C009A61244B0022DA61224B8022D2051A6268
:10432C00204B00225A621F4B180001F033FD031E74
:10433C0001D0FEF705FB3B1D00221A703B1D00222D
:10434C005A703B1D00229A703B1D00225A603B1D87
:10435C000022DA603B1D00221A61391D114B01222B
:10436C00180001F0B9FD031E01D0FEF7E9FA3B007D
:10437C0001221A703B0001225A703B0001229A70F4
:10438C003B000022DA703900064B0122180001F0C4
:10439C004BFE031E01D0FEF7D3FAC046BD4606B055
:1043AC0080BDC046280000200028004090B597B082
:1043BC0000AF78600C243B1918004C231A00002124
:1043CC0003F0E4FB7B681B68154A934224D13B192C
:1043DC00802292021A603B19802292001A643B19C7
:1043EC00180001F09BFA031E01D0FEF7A9FA0D4B41
:1043FC00DA6D0C4B802109020A43DA65094BDA6B42
:10440C00084B8021C9000A43DA63064BDA6B802320
:10441C00DB001340BB60BB68C046BD4617B090BD07
:10442C00002800400010024080B582B000AF114B54
:10443C001A6C104B01210A431A640E4B1B6C01229F
:10444C0013407B607B680B4BDA6B0A4B8021490570
:10445C000A43DA63074BDA6B80235B0513403B603E
:10446C003B68C023DB00180000F0BCF9C046BD4619
:10447C0002B080BD0010024080B500AFC046FDE721
:10448C0080B500AFC046FDE780B500AFC046BD4665
:10449C0080BD80B500AFC046BD4680BD80B500AFC5
:1044AC0000F060F9C046BD4680BD000080B500AF8D
:1044BC00034B180002F010F9C046BD4680BDC04643
:1044CC005400002080B500AFC046BD4680BD000042
:1044DC0080B500AF234B244A1A60224BE1225202D2
:1044EC005A60204B00229A601E4B0022DA601D4B52
:1044FC0000221A611B4B0C225A611A4B00229A6142
:10450C00184B0022DA61174B00221A62154B00225D
:10451C005A62144B00229A62124B180001F0EAFE08
:10452C00031E01D0FEF70CFA0E4B0021180003F00D
:10453C004DFA031E01D0FEF703FA0A4B00211800B6
:10454C0003F084FA031E01D0FEF7FAF9054B1800AC
:10455C0003F002FA031E01D0FEF7F2F9C046BD4685
:10456C0080BDC046540000200044004090B59DB072
:10457C0000AF78605C23FB18180014231A0000218C
:10458C0003F004FB10243B1918004C231A000021E3
:10459C0003F0FCFA7B681B68264A934246D13B1910
:1045AC0002221A603B1900229A603B19180001F094
:1045BC00B5F9031E01D0FEF7C3F91F4BDA6B1E4B86
:1045CC00802189020A43DA631B4BDA6B80239B023E
:1045DC001340FB60FB68184B5A6B174B01210A43C5
:1045EC005A63154B5B6B01221340BB60BB685C21AB
:1045FC007B180C221A607B1802225A607B1800224E
:10460C009A607B180022DA607B1801221A617A18F2
:10461C00A023DB051100180000F0A0FA00220021F5
:10462C001C2000F0A1F91C2000F0B3F9C046BD46D7
:10463C001DB090BD00440040001002400D4885465E
:10464C00FFF740FF0C480D490D4A002302E0D458F7
:10465C00C4500433C4188C42F9D30A4A0A4C0023C0
:10466C0001E013600432A242FBD303F097FAFEF789
:10467C000DF8FEE700400220000000200C00002096
:10468C00508500080C000020EC000020FEE7000024
:10469C0080B582B000AFFB1D00221A700B4B1A685C
:1046AC000A4B802149000A431A60002000F010F8E0
:1046BC00031E03D0FB1D01221A7001E0FFF7B4FEAC
:1046CC00FB1D1B781800BD4602B080BD00200240C7
:1046DC0090B585B000AF78600F23FB1800221A70DC
:1046EC001D4B1B78002B2BD01C4B1C681A4B1B78BA
:1046FC001900FA239800FBF7FFFC030019002000B7
:10470C00FBF7FAFC0300180000F053F9031E12D15A
:10471C007B68032B0AD8796801235B4200221800BE
:10472C0000F022F90E4B7A681A600DE00F23FB188B
:10473C0001221A7008E00F23FB1801221A7003E003
:10474C000F23FB1801221A700F23FB181B7818007B
:10475C00BD4605B090BDC0460800002000000020FA
:10476C000400002080B500AF054B1B781A00054BE8
:10477C001B68D218034B1A60C046BD4680BDC046AC
:10478C0008000020E800002080B500AF024B1B6839
:10479C001800BD4680BDC046E800002080B584B03E
:1047AC0000AF7860FFF7F0FF0300BB607B68FB6035
:1047BC00FB68013305D00A4B1B781A00FB689B1869
:1047CC00FB60C046FFF7E0FF0200BB68D31AFA6833
:1047DC009A42F7D8C046C046BD4604B080BDC0461C
:1047EC000800002080B582B000AF7860064B1B68D3
:1047FC00064A13401900044B7A680A431A60C046F3
:10480C00BD4602B080BDC04600000140FFF9FFFF6D
:10481C0080B582B000AF0200FB1D1A70FB1D1B7827
:10482C007F2B09D8FB1D1B781A001F231A40044B41
:10483C00012191400A001A60C046BD4602B080BDFD
:10484C0000E100E090B583B000AF02003960FB1DC1
:10485C001A70FB1D1B787F2B28D82F4AFB1D1B7849
:10486C005BB29B08C0339B009B58FA1D1278110059
:10487C0003220A40D200FF2191400A00D2431A4081
:10488C0011003B689B01FF221A40FB1D1B7818008E
:10489C0003230340DB009A401F48FB1D1B785BB2CF
:1048AC009B080A43C0339B001A5031E01B4AFB1D86
:1048BC001B7819000F230B40083B9B0806339B0009
:1048CC00D31804331B68FA1D1278110003220A4016
:1048DC00D200FF2191400A00D2431A4011003B68DC
:1048EC009B01FF221A40FB1D1B7818000323034079
:1048FC00DB009A400948FB1D1B781C000F2323404A
:10490C00083B9B080A4306339B00C31804331A6008
:10491C00C046BD4603B090BD00E100E000ED00E0F4
:10492C0080B582B000AF78607B685A1E80235B0430
:10493C009A4201D3012310E00A4B7A68013A5A607B
:10494C0001235B4203211800FFF77CFF054B00227B
:10495C009A60044B07221A6000231800BD4602B06F
:10496C0080BDC04610E000E080B584B000AFB960F7
:10497C007A600F217B18021C1A70BA687B181B789E
:10498C005BB211001800FFF75DFFC046BD4604B0D6
:10499C0080BD80B582B000AF0200FB1D1A70FB1DFC
:1049AC001B785BB21800FFF733FFC046BD4602B060
:1049BC0080BD80B582B000AF78607B681800FFF7CF
:1049CC00AFFF03001800BD4602B080BD80B582B0B9
:1049DC0000AF78607B68002B01D101234FE07B682E
:1049EC0025229B5CDBB2022B08D07B680422DA63A5
:1049FC007B68242200219954012340E07B681B68CA
:104A0C001A687B681B6801218A431A607B681B68E3
:104A1C001A687B681B680E218A431A607B689B6C42
:104A2C001A687B689B6C18490A401A607B685B6C3F
:104A3C001C221A407B681B6C012191400A005A60B1
:104A4C007B68DB6C7A68126D5A607B685B6D002B3F
:104A5C000CD07B685B6D1A687B685B6D0A490A40F9
:104A6C001A607B689B6D7A68D26D5A607B682522D0
:104A7C00012199547B6824220021995400231800A9
:104A8C00BD4602B080BDC046FFFEFFFF80B584B0BE
:104A9C0000AF78600F217B1800221A707B682522EA
:104AAC009B5CDBB2022B06D07B680422DA637B189A
:104ABC0001221A7048E07B681B681A687B681B68C7
:104ACC0001218A431A607B681B681A687B681B6823
:104ADC000E218A431A607B689B6C1A687B689B6CFE
:104AEC001D490A401A607B685B6C1C221A407B686B
:104AFC001B6C012191400A005A607B68DB6C7A6860
:104B0C00126D5A607B685B6D002B0CD07B685B6D03
:104B1C001A687B685B6D10490A401A607B689B6D54
:104B2C007A68D26D5A607B682522012199547B6882
:104B3C002422002199547B689B6B002B04D07B684A
:104B4C009B6B7A68100098470F23FB181B78180092
:104B5C00BD4604B080BDC046FFFEFFFF80B586B0E9
:104B6C0000AF7860396000237B614DE13B681B68C6
:104B7C0001217A6991400A001340FB60FB68002B0D
:104B8C0000D13EE13B685B6803221340012B05D04A
:104B9C003B685B6803221340022B30D17B689B6817
:104BAC003B617B695B0003229A401300DA433B694B
:104BBC0013403B613B68DA687B695B009A401300E9
:104BCC003A6913433B617B683A699A607B685B681E
:104BDC003B6101227B699A401300DA433B69134025
:104BEC003B613B685B681B0901221A407B699A4058
:104BFC0013003A6913433B617B683A695A603B681E
:104C0C005B6803221340032B17D07B68DB683B6186
:104C1C007B695B0003229A401300DA433B69134023
:104C2C003B613B689A687B695B009A4013003A6968
:104C3C0013433B617B683A69DA603B685B6803222B
:104C4C001340022B23D17B69DA087B68083292006F
:104C5C00D3583B617B69072213409B000F229A407B
:104C6C001300DA433B6913403B613B681A697B696B
:104C7C0007210B409B009A4013003A6913433B6198
:104C8C007B69DA087B68083292003969D1507B68FD
:104C9C001B683B617B695B0003229A401300DA437B
:104CAC003B6913403B613B685B6803221A407B699C
:104CBC005B009A4013003A6913433B617B683A6985
:104CCC001A603B685A68C0239B02134000D198E0DD
:104CDC00534A7B699B0818339B009B583B617B694B
:104CEC0003221340DB000F229A401300DA433B6986
:104CFC0013403B617A68A023DB059A4219D07B688C
:104D0C00484A934213D07B68474A93420DD07B6844
:104D1C00464A934207D07B68454A934201D104230B
:104D2C0008E0052306E0032304E0022302E001234C
:104D3C0000E000237A6903210A40D20093403A69CB
:104D4C0013433B6136497B699B0818339B003A69D6
:104D5C005A50334B1B683B61FB68DA433B69134089
:104D6C003B613B685A6880235B03134003D03A696C
:104D7C00FB6813433B612A4B3A691A60284B5B680A
:104D8C003B61FB68DA433B6913403B613B685A6803
:104D9C0080239B03134003D03A69FB6813433B61A8
:104DAC001F4B3A695A601E4A8423D3583B61FB68F7
:104DBC00DA433B6913403B613B685A6880239B0292
:104DCC00134003D03A69FB6813433B6114498422B6
:104DDC003B698B50124A8023D3583B61FB68DA4302
:104DEC003B6913403B613B685A6880235B0213406C
:104DFC0003D03A69FB6813433B61094980223B6944
:104E0C008B507B6901337B613B681A687B69DA40A4
:104E1C00131E00D0AAE6C046C046BD4606B080BDF3
:104E2C00001802400004005000080050000C005014
:104E3C000010005080B582B000AF786008001100FF
:104E4C00BB1C021C1A807B1C0A1C1A707B1C1B7856
:104E5C00002B04D0BB1C1A887B689A6103E0BB1C36
:104E6C001A887B689A62C046BD4602B080BD0000BD
:104E7C0080B584B000AF7860194B1B68194A134099
:104E8C001900174B7A680A431A607A6880239B00D2
:104E9C009A421FD1144B1A6813005B009B185B00DD
:104EAC0012491800FBF728F903000133FB6008E0F6
:104EBC00FB68002B03D0FB68013BFB6001E0032384
:104ECC0009E0074B5A698023DB001A408023DB0082
:104EDC009A42EDD000231800BD4604B080BDC046F8
:104EEC0000700040FFF9FFFF0000002040420F005F
:104EFC0080B500AF034B9A68E023DB011340180028
:104F0C00BD4680BD0010024080B588B000AF78600F
:104F1C007B68002B02D1012300F050FB7B681B68DF
:104F2C000122134000D17CE0C34B9B683822134014
:104F3C00BB61C14BDB68032213407B61BB69102B47
:104F4C0002D17B69032B02D0BB69082B0BD1BA4B66
:104F5C001A6880239B02134062D07B685B68002B2D
:104F6C005ED101232AE37B685A6880235B029A4254
:104F7C0007D1B14B1A68B04B802149020A431A6021
:104F8C0020E07B685A68A023DB029A420ED1AA4B20
:104F9C001A68A94B8021C9020A431A60A64B1A68E9
:104FAC00A54B802149020A431A600BE0A24B1A68F8
:104FBC00A14BA2490A401A609F4B1A689E4BA0490C
:104FCC000A401A607B685B68002B14D0FFF7DCFB8F
:104FDC0003003B6108E0FFF7D7FB02003B69D31AE3
:104FEC00642B01D90323E9E2934B1A6880239B02BB
:104FFC001340F0D015E0FFF7C7FB03003B6108E05E
:10500C00FFF7C2FB02003B69D31A642B01D90323BF
:10501C00D4E2894B1A6880239B021340F0D100E044
:10502C00C0467B681B680222134000D199E0824B7A
:10503C009B6838221340BB617F4BDB680322134013
:10504C007B61BB69102B02D17B69022B02D0BB693F
:10505C00002B35D1784B1A688023DB00134005D028
:10506C007B68DB68002B01D10123A7E2724B5B68E4
:10507C00744A134019007B685B691A026E4B0A4331
:10508C005A60BB69002B12D16B4B1B686E4A1340E4
:10509C0019007B681A69684B0A431A60664B1B68D7
:1050AC00DB0A07221340694ADA40694B1A60694BE4
:1050BC001B681800FFF70CFB031E51D001237DE287
:1050CC007B68DB68002B30D05B4B1B685E4A13405F
:1050DC0019007B681A69584B0A431A60564B1A68B8
:1050EC00554B802149000A431A60FFF74DFB030022
:1050FC003B6108E0FFF748FB02003B69D31A022B27
:10510C0001D903235AE24C4B1A688023DB0013406D
:10511C00F0D0494B5B684B4A134019007B685B69C4
:10512C001A02454B0A435A601BE0434B1A68424B28
:10513C0049490A401A60FFF727FB03003B6108E06E
:10514C00FFF722FB02003B69D31A022B01D9032380
:10515C0034E2394B1A688023DB001340F0D100E0B5
:10516C00C0467B681B680822134047D0324B9B68B3
:10517C0038221340182B0AD12F4B1B6E02221340DE
:10518C003CD07B689B69002B38D1012316E27B68ED
:10519C009B69002B19D0284B1A6E274B01210A430F
:1051AC001A66FFF7F1FA03003B6108E0FFF7ECFA2F
:1051BC0002003B69D31A022B01D90323FEE11E4BDB
:1051CC001B6E02221340F1D018E01B4B1A6E1A4BC7
:1051DC0001218A431A66FFF7D7FA03003B6108E006
:1051EC00FFF7D2FA02003B69D31A022B01D9032331
:1051FC00E4E1114B1B6E02221340F1D17B681B685A
:10520C000422134000D1C7E01F23FB1800221A70A0
:10521C00094B9B6838221340202B1FD1064BDB6DAA
:10522C000222134000D1B7E07B689B68002B00D0B2
:10523C00B2E00123C2E1C04600100240FFFFFEFFB6
:10524C00FFFFFBFFFF80FFFFFFC7FFFF0024F40001
:10525C000000002004000020FFFEFFFFB54BDA6BBE
:10526C0080235B05134001D1012300E00023002BB8
:10527C0011D0B04BDA6BAF4B802149050A43DA638E
:10528C00AC4BDA6B80235B051340FB60FB681F2380
:10529C00FB1801221A70A84B1A6880235B0013407C
:1052AC001AD1A54B1A68A44B802149000A431A60F5
:1052BC00FFF76AFA03003B6108E0FFF765FA0200AA
:1052CC003B69D31A022B01D9032377E19A4B1A6855
:1052DC0080235B001340F0D07B689B68012B06D1C8
:1052EC00944BDA6D934B01210A43DA651CE07B6821
:1052FC009B68052B0CD18F4BDA6D8E4B04210A4326
:10530C00DA658C4BDA6D8B4B01210A43DA650BE0C5
:10531C00884BDA6D874B01218A43DA65854BDA6D50
:10532C00844B04218A43DA657B689B68002B14D07C
:10533C00FFF72AFA03003B6109E0FFF725FA0200A8
:10534C003B69D31A7D4A934201D9032336E1794B49
:10535C00DB6D02221340F0D013E0FFF715FA0300C7
:10536C003B6109E0FFF710FA02003B69D31A734A5C
:10537C00934201D9032321E16E4BDB6D02221340D2
:10538C00F0D11F23FB181B78012B05D1694BDA6B6D
:10539C00684B6B490A40DA637B681B682022134018
:1053AC0039D07B68DB69002B1BD0624B1A68614BD0
:1053BC008021C9030A431A60FFF7E6F903003B6139
:1053CC0008E0FFF7E1F902003B69D31A022B01D97F
:1053DC000323F3E0574B1A6880231B041340F0D0CF
:1053EC0019E0544B1A68534B56490A401A60FFF7A0
:1053FC00CBF903003B6108E0FFF7C6F902003B69FB
:10540C00D31A022B01D90323D8E04A4B1A68802304
:10541C001B041340F0D17B681B6A002B00D1CCE03D
:10542C00444B9B6838221340102B00D17BE07B68E7
:10543C001B6A022B56D13F4B1A683E4B42490A401D
:10544C001A60FFF7A1F903003B6108E0FFF79CF934
:10545C0002003B69D31A022B01D90323AEE0354B72
:10546C001A6880239B041340F0D1324BDB68374A17
:10547C00134019007B685A6A7B689B6A1A437B68E5
:10548C00DB6A1B021A437B681B6B1A437B685B6BE2
:10549C001A437B689B6B1A43264B0A43DA60254BF5
:1054AC001A68244B802149040A431A60214BDA689C
:1054BC00204B802149050A43DA60FFF765F90300A8
:1054CC003B6108E0FFF760F902003B69D31A022B3D
:1054DC0001D9032372E0174B1A6880239B041340F5
:1054EC00F0D06AE0134B1A68124B17490A401A6045
:1054FC00FFF74AF903003B6108E0FFF745F90200AA
:10550C003B69D31A022B01D9032357E0094B1A68C4
:10551C0080239B041340F0D1064BDA68054B0C49F1
:10552C000A40DA6049E07B681B6A012B12D1012327
:10553C0044E0C04600100240007000408813000098
:10554C00FFFFFFEFFFFFBFFFFFFFFFFE8C80C111CE
:10555C00FCFFFEEE1B4BDB687B617B6903221A4070
:10556C007B685B6A9A4226D17B6970221A407B6801
:10557C009B6A9A421FD17A69FE23DB011A407B6831
:10558C00DB6A1B029A4216D17A69F8239B031A40F4
:10559C007B681B6B9A420ED17A69E0231B051A407B
:1055AC007B685B6B9A4206D17B695B0F5A077B6801
:1055BC009B6B9A4201D0012300E000231800BD46EA
:1055CC0008B080BD0010024080B584B000AF786098
:1055DC0039607B68002B01D10123E9E0764B1B6815
:1055EC00072213403A689A421ED9734B1B68072254
:1055FC0093431900704B3A680A431A60FFF7C4F8DA
:10560C000300FB6009E0FFF7BFF80200FB68D31A48
:10561C006A4A934201D90323CAE0674B1B680722ED
:10562C0013403A689A42EED17B681B680222134001
:10563C0015D07B681B680422134006D0604B9A6817
:10564C005F4BE021C9010A439A605D4B9B685D4A40
:10565C00134019007B689A68594B0A439A607B681F
:10566C001B680122134057D07B685B68012B07D164
:10567C00534B1A6880239B0213402BD1012397E0D4
:10568C007B685B68022B07D14D4B1A6880239B0407
:10569C0013401FD101238BE07B685B68002B07D183
:1056AC00474B1A688023DB00134013D101237FE0A2
:1056BC007B685B68032B06D1414B1B6E02221340A7
:1056CC0008D1012374E03E4BDB6D0222134001D163
:1056DC0001236DE03A4B9B680722934319007B68CA
:1056EC005A68374B0A439A60FFF74EF80300FB6089
:1056FC0009E0FFF749F80200FB68D31A2F4A9342DE
:10570C0001D9032354E02E4B9B6838221A407B6846
:10571C005B68DB009A42ECD1274B1B6807221340D5
:10572C003A689A421ED2244B1B68072293431900F5
:10573C00214B3A680A431A60FFF726F80300FB6016
:10574C0009E0FFF721F80200FB68D31A1B4A9342C9
:10575C0001D903232CE0184B1B68072213403A682D
:10576C009A42EED17B681B680422134009D0144B7B
:10577C009B68154A134019007B68DA68104B0A4382
:10578C009A6000F029F801000D4B9B681B0A0F2250
:10579C001A400E4B9200D3581F2213400A00DA40D5
:1057AC000B4B1A600B4B1B681800FEF791FF0300A4
:1057BC001800BD4604B080BD0020024088130000D4
:1057CC0000100240FFF0FFFFFF8FFFFFB8840008BE
:1057DC00000000200400002080B586B000AF3C4BD8
:1057EC009B68382213400FD1394B1B68DB0A072208
:1057FC00134001229A4013003B6039683548FAF790
:10580C007BFC03003B615DE0314B9B68382213400D
:10581C00082B02D1304B3B6154E02D4B9B68382256
:10582C001340102B38D12A4BDB6803221340FB604A
:10583C00274BDB681B09072213400133BB60FB6855
:10584C00032B0DD1B9682448FAF756FC0300190054
:10585C001F4BDB681B0A7F2213404B437B610DE01F
:10586C00B9681C48FAF748FC03001900184BDB68B0
:10587C001B0A7F2213404B437B61C046144BDB68F1
:10588C005B0F0722134001337B6079687869FAF764
:10589C0033FC03003B6115E00D4B9B683822134031
:1058AC00202B03D180231B023B610BE0084B9B6830
:1058BC0038221340182B03D1FA23DB013B6101E0A2
:1058CC0000233B613B691800BD4606B080BDC04655
:1058DC00001002400024F40000127A0080B500AFE2
:1058EC00024B1B681800BD4680BDC046000000205E
:1058FC00B0B500AFFFF7F2FF0400FFF7F9FA0300B1
:10590C001A0B054B9200D3581F221340DC40230086
:10591C001800BD46B0BDC046F884000880B586B0FE
:10592C0000AF78601323FB1800221A701223FB18A7
:10593C0000221A707B681A6880239B02134000D1E6
:10594C00ADE011203B1800221A70474BDA6B802314
:10595C005B05134010D1444BDA6B434B8021490556
:10596C000A43DA63404BDA6B80235B051340BB6060
:10597C00BB683B1801221A703C4B1A683B4B8021C8
:10598C0049000A431A60FEF7FFFE0300FB600BE0C0
:10599C00FEF7FAFE0200FB68D31A022B04D913237C
:1059AC00FB1803221A7005E0304B1A6880235B0049
:1059BC001340EDD01323FB181B78002B5ED12A4B20
:1059CC00DA6DC0239B0013407B617B69002B19D0DF
:1059DC007B681B6C7A699A4214D0234BDB6D244A8A
:1059EC0013407B61204BDA6D1F4B802149020A4327
:1059FC00DA651D4BDA6D1C4B1E490A40DA651A4BF1
:105A0C007A69DA657B690122134016D0FEF7BCFE79
:105A1C000300FB600CE0FEF7B7FE0200FB68D31A34
:105A2C00154A934204D91323FB1803221A7004E07D
:105A3C000D4BDB6D02221340EDD01323FB181B78AA
:105A4C00002B0AD1084BDB6D094A134019007B6807
:105A5C001A6C054B0A43DA6516E01223FB18132265
:105A6C00BA1812781A700FE0001002400070004053
:105A7C00FFFCFFFFFFFFFEFF881300001223FB1843
:105A8C001322BA1812781A701123FB181B78012BE9
:105A9C0005D1B64BDA6BB54BB5490A40DA637B6876
:105AAC001B680122134009D0B04B5B6D032293435A
:105ABC0019007B685A68AD4B0A435A657B681B68B2
:105ACC000222134009D0A94B5B6D0C2293431900A1
